:020000040800F2
:1000000000000520E11A0008E1190008E3190008C2
:10001000E5190008E7190008E919000800000000C8
:10002000000000000000000000000000F190000847
:10003000EB1900080000000091910008F5910008FC
:10004000311B0008311B0008311B0008311B000860
:10005000311B0008311B0008311B0008311B000850
:10006000311B0008311B0008311B0008311B000840
:10007000311B0008311B0008311B0008311B000830
:10008000311B0008311B0008311B0008311B000820
:10009000311B0008311B0008311B0008311B000810
:1000A000311B0008311B0008311B0008311B000800
:1000B000311B0008311B0008311B0008311B0008F0
:1000C000311B0008311B0008311B0008311B0008E0
:1000D000311B0008311B0008311B0008311B0008D0
:1000E000ED190008311B0008311B0008311B000806
:1000F000311B0008311B0008311B0008311B0008B0
:10010000311B0008311B0008311B0008311B00089F
:10011000311B0008311B0008F5190008011A0008FE
:10012000311B0008311B0008311B0008311B00087F
:10013000311B0008311B0008311B0008311B00086F
:10014000311B0008311B0008311B0008311B00085F
:10015000311B0008311B0008311B0008311B00084F
:10016000311B0008311B0008311B0008311B00083F
:10017000311B0008311B0008311B00080000000083
:100180000D1A0008311B0008311B0008311B000844
:10019000311B0008311B0008311B0008311B00080F
:1001A000191A0008311B0008251A0008311B000825
:1001B000311B0008311B0008311B0008311B0008EF
:0801C000311B0008311B00088F
:1001D00010B5054C237833B9044B13B10448AFF381
:1001E00000800123237010BD2001002000000000CA
:1001F00020C4020808B5034B1BB103490348AFF301
:10020000008008BD000000002401002020C4020876
:1002100001F0FF01102A2BDB10F0070F08D010F8B7
:10022000013B013A8B422DD010F0070F42B3F6D1BB
:10023000F0B441EA012141EA014122F007047FF0D4
:1002400000070023F0E80256083C85EA010586EA2B
:10025000010685FA47F5A3FA87F586FA47F6A5FA67
:1002600087F68EB9EED1F0BC01F0FF0102F0070273
:1002700032B110F8013B013A83EA010313B1F8D11E
:100280000020704701387047002D06BF35460338FF
:10029000073815F0010F07D1013015F4807F02BF38
:1002A000013015F4C03F0130F0BC0138704700BF89
:1002B00081F0004102E000BF83F0004330B54FEA17
:1002C00041044FEA430594EA050F08BF90EA020F84
:1002D0001FBF54EA000C55EA020C7FEA645C7FEA17
:1002E000655C00F0E2804FEA5454D4EB5555B8BF3A
:1002F0006D420CDD2C4480EA020281EA030382EAAB
:10030000000083EA010180EA020281EA0303362D3C
:1003100088BF30BD11F0004F4FEA01314FF4801C0F
:100320004CEA113102D0404261EB410113F0004F21
:100330004FEA03334CEA133302D0524263EB4303D8
:1003400094EA050F00F0A780A4F10104D5F1200E76
:100350000DDB02FA0EFC22FA05F2801841F10001D1
:1003600003FA0EF2801843FA05F359410EE0A5F1A5
:1003700020050EF1200E012A03FA0EFC28BF4CF0D6
:10038000020C43FA05F3C01851EBE37101F000458C
:1003900007D54FF0000EDCF1000C7EEB00006EEB99
:1003A0000101B1F5801F1BD3B1F5001F0CD3490823
:1003B0005FEA30004FEA3C0C04F101044FEA44527A
:1003C00012F5800F80F09A80BCF1004F08BF5FEA01
:1003D000500C50F1000041EB045141EA050130BDE1
:1003E0005FEA4C0C404141EB0101013C28BFB1F5F3
:1003F000801FE9D291F0000F04BF01460020B1FA3E
:1004000081F308BF2033A3F10B03B3F120020CDA10
:100410000C3208DD02F1140CC2F10C0201FA0CF0EE
:1004200021FA02F10CE002F11402D8BFC2F1200C53
:1004300001FA02F120FA0CFCDCBF41EA0C01904009
:10044000E41AA2BF01EB0451294330BD6FEA040452
:100450001F3C1CDA0C340EDC04F11404C4F120023D
:1004600020FA04F001FA02F340EA030021FA04F34F
:1004700045EA030130BDC4F10C04C4F1200220FAA6
:1004800002F001FA04F340EA0300294630BD21FAE4
:1004900004F0294630BD94F0000F83F4801306BFAA
:1004A00081F480110134013D4EE77FEA645C18BF9E
:1004B0007FEA655C29D094EA050F08BF90EA020F35
:1004C00005D054EA000C04BF1946104630BD91EA2D
:1004D000030F1EBF0021002030BD5FEA545C05D130
:1004E0004000494128BF41F0004130BD14F580046F
:1004F0003CBF01F5801130BD01F0004545F0FE41E3
:1005000041F470014FF0000030BD7FEA645C1ABF17
:10051000194610467FEA655C1CBF0B46024650EA4E
:10052000013406BF52EA033591EA030F41F400217A
:1005300030BD00BF90F0000F04BF0021704730B500
:100540004FF4806404F132044FF000054FF00001D5
:1005500050E700BF90F0000F04BF0021704730B596
:100560004FF4806404F1320410F0004548BF40426B
:100570004FF000013EE700BF42004FEAE2014FEAC0
:1005800031014FEA02701FBF12F07F4393F07F4F9B
:1005900081F06051704732F07F4208BF704793F09E
:1005A0007F4F04BF41F40021704730B54FF46074B1
:1005B00001F0004521F000411CE700BF50EA0102B4
:1005C00008BF704730B54FF000050AE050EA01025D
:1005D00008BF704730B511F0004502D5404261EBCD
:1005E00041014FF4806404F132045FEA915C3FF40E
:1005F000D8AE4FF003025FEADC0C18BF03325FEAAB
:10060000DC0C18BF033202EBDC02C2F1200300FA5B
:1006100003FC20FA02F001FA03FE40EA0E0021FA80
:1006200002F11444BDE600BF70B54FF0FF0C4CF46E
:10063000E06C1CEA11541DBF1CEA135594EA0C0F20
:1006400095EA0C0F00F0DEF82C4481EA030621EA5B
:100650004C5123EA4C5350EA013518BF52EA033596
:1006600041F4801143F4801338D0A0FB02CE4FF048
:100670000005E1FB02E506F00042E0FB03E54FF078
:100680000006E1FB03569CF0000F18BF4EF0010E70
:10069000A4F1FF04B6F5007F64F5407404D25FEA6C
:1006A0004E0E6D4146EB060642EAC62141EA55511F
:1006B0004FEAC52040EA5E504FEACE2EB4F1FD0C61
:1006C00088BFBCF5E06F1ED8BEF1004F08BF5FEADF
:1006D000500E50F1000041EB045170BD06F0004691
:1006E00046EA010140EA020081EA0301B4EB5C043E
:1006F000C2BFD4EB0C0541EA045170BD41F4801136
:100700004FF0000E013C00F3AB8014F1360FDEBF5A
:10071000002001F0004170BDC4F10004203C35DA36
:100720000C341BDC04F11404C4F1200500FA05F3B9
:1007300020FA04F001FA05F240EA020001F000425A
:1007400021F0004110EBD37021FA04F642EB0601D0
:100750005EEA430E08BF20EAD37070BDC4F10C04FA
:10076000C4F1200500FA04F320FA05F001FA04F2BE
:1007700040EA020001F0004110EBD37041F10001AA
:100780005EEA430E08BF20EAD37070BDC4F12005B5
:1007900000FA05F24EEA020E20FA04F301FA05F21D
:1007A00043EA020321FA04F001F0004121FA04F2C5
:1007B00020EA020000EBD3705EEA430E08BF20EA95
:1007C000D37070BD94F0000F0FD101F000464000CF
:1007D00041EB010111F4801F08BF013CF7D041EA51
:1007E000060195F0000F18BF704703F00046520055
:1007F00043EB030313F4801F08BF013DF7D043EA26
:100800000603704794EA0C0F0CEA135518BF95EADB
:100810000C0F0CD050EA410618BF52EA4306D1D162
:1008200081EA030101F000414FF0000070BD50EA81
:10083000410606BF1046194652EA430619D094EA0B
:100840000C0F02D150EA013613D195EA0C0F05D1F5
:1008500052EA03361CBF104619460AD181EA030149
:1008600001F0004141F0FE4141F470014FF0000001
:1008700070BD41F0FE4141F4780170BD70B54FF09C
:10088000FF0C4CF4E06C1CEA11541DBF1CEA13551C
:1008900094EA0C0F95EA0C0F00F0A7F8A4EB0504FE
:1008A00081EA030E52EA03354FEA013100F08880F5
:1008B0004FEA03334FF0805545EA131343EA1263BE
:1008C0004FEA022245EA111545EA10654FEA002673
:1008D0000EF000419D4208BF964244F1FD0404F52C
:1008E000407402D25B084FEA3202B61A65EB030588
:1008F0005B084FEA32024FF480104FF4002CB6EB45
:10090000020E75EB030E22BFB61A754640EA0C00C4
:100910005B084FEA3202B6EB020E75EB030E22BF04
:10092000B61A754640EA5C005B084FEA3202B6EB45
:10093000020E75EB030E22BFB61A754640EA9C0004
:100940005B084FEA3202B6EB020E75EB030E22BFD4
:10095000B61A754640EADC0055EA060E18D04FEA92
:10096000051545EA16754FEA06164FEAC30343EA32
:1009700052734FEAC2025FEA1C1CC0D111F4801FFF
:100980000BD141EA00014FF000004FF0004CB6E7F8
:1009900011F4801F04BF01430020B4F1FD0C88BF97
:1009A000BCF5E06F3FF6AFAEB5EB030C04BFB6EBA2
:1009B000020C5FEA500C50F1000041EB045170BD95
:1009C0000EF0004E4EEA113114EB5C04C2BFD4EBC2
:1009D0000C0541EA045170BD41F480114FF0000E46
:1009E000013C90E645EA060E8DE60CEA135594EAC2
:1009F0000C0F08BF95EA0C0F3FF43BAF94EA0C0FC5
:100A00000AD150EA01347FF434AF95EA0C0F7FF439
:100A100025AF104619462CE795EA0C0F06D152EA8D
:100A200003353FF4FDAE1046194622E750EA410671
:100A300018BF52EA43067FF4C5AE50EA41047FF482
:100A40000DAF52EA43057FF4EBAE12E74FEA4102E5
:100A5000B2F1E04324BFB3F5001CDCF1FE5C0DD91C
:100A600001F0004C4FEAC0024CEA5070B2F1004F66
:100A700040EB830008BF20F00100704711F0804F69
:100A800021D113F13872BCBF01F00040704741F42E
:100A900080114FEA5252C2F11802C2F1200C10FA32
:100AA0000CF320FA02F018BF40F001004FEAC12316
:100AB0004FEAD32303FA0CFC40EA0C0023FA02F3BA
:100AC0004FEA4303CCE77FEA625307D150EA013390
:100AD0001EBF4FF0FE4040F44000704701F0004060
:100AE00040F0FE4040F40000704700BF53B94AB9DF
:100AF000002908BF00281CBF4FF0FF314FF0FF3026
:100B000000F06EB9ADF1080C6DE904CE00F006F806
:100B1000DDF804E0DDE9022304B070472DE9F04779
:100B2000089D04468C46002B40F083808A4217467D
:100B300047D9B2FA82F242B1C2F1200024FA00F0A1
:100B40009140974040EA010C94404FEA1748230C2B
:100B5000BCFBF8F61FFA87FE08FB16C143EA014307
:100B600006FB0EF1994209D9FB1806F1FF3080F01F
:100B70001981994240F21681023E3B445B1AA4B2AD
:100B8000B3FBF8F008FB103344EA034400FB0EFE0D
:100B9000A64509D93C1900F1FF3380F00581A6452F
:100BA00040F2028102383C4440EA0640A4EB0E04C5
:100BB00000261DB1D4400023C5E900433146BDE8FD
:100BC000F08702B9FFDEB2FA82F2002A50D1CB1BC5
:100BD0004FEA174E1FFA87F80126B3FBFEFC210CE3
:100BE0000EFB1C3341EA034108FB0CF38B4207D98F
:100BF00079180CF1FF3002D28B4200F2E980844672
:100C0000C91AA3B2B1FBFEF00EFB101143EA014476
:100C100008FB00F8A04507D93C1900F1FF3302D2C8
:100C2000A04500F2D9801846A4EB080440EA0C4025
:100C3000BFE78B4209D9002D00F0B1800026C5E93D
:100C4000000130463146BDE8F087B3FA83F6002E46
:100C50004AD18B4202D3824200F2B880841A61EBFF
:100C6000030101208C46002DA8D0C5E9004CA5E762
:100C7000C2F1200320FA03F6974001FA02F04FEA8E
:100C8000174ED9403043030CB1FBFEF61FFA87F82C
:100C90000EFB161143EA014306FB08F1994204FAE0
:100CA00002F409D9FB1806F1FF3C80F08D809942CF
:100CB00040F28A80023E3B445B1A81B2B3FBFEF0F5
:100CC0000EFB103341EA034100FB08F38B4207D9C6
:100CD000791800F1FF3C73D28B4271D90238394444
:100CE000CB1A40EA064678E7C6F1200C03FA06F470
:100CF00022FA0CF31C4320FA0CF701FA06F34FEA30
:100D0000144E21FA0CF11F433B0CB1FBFEF91FFA04
:100D100084F80EFB191143EA014109FB08FA8A45E0
:100D200002FA06F200FA06F308D9611809F1FF3059
:100D300048D28A4546D9A9F102092144A1EB0A010A
:100D4000BFB2B1FBFEF00EFB101147EA014700FBFA
:100D500008F8B84507D9E71900F1FF312ED2B84598
:100D60002CD90238274440EA0940A7EB0807A0FB2A
:100D700002894F45C64649461AD317D05DB1B3EB39
:100D80000E0267EB010707FA0CFCF2404CEA020284
:100D9000F740C5E9002700263146BDE8F0872E461A
:100DA00028460BE70646E9E61846FDE64345E5D248
:100DB000B8EB020E69EB04010138DFE70846D2E721
:100DC00060468DE78146B9E7664675E730464AE7F3
:100DD000ACF1020C394413E702383C4424E700BF6D
:100DE000704700BF70477047034A0023107810B166
:100DF000012013700B7070474C010020704710B534
:100E0000044608212AF08BF8204610BD0149002035
:100E100009F0A4BB751E000808B5642007F082FD28
:100E2000FBE7000070B5B4B010220021012609A82C
:100E300002252AF023FA1422002102A82AF01EFA21
:100E40000021842213A82AF019FA264B07A80024AF
:100E50001A6C42F080521A641B6C03F080530093AA
:100E6000009B214B1A6842F440421A6019221B6809
:100E7000119503F440430193019B4FF48033CDE976
:100E800007634FF48003CDE90D534FF4C873CDE9E8
:100E90000F230A23129306F049FC06F0EFF80F2304
:100EA000062102A8CDE902354FF4A053CDE9044351
:100EB0004FF48053069306F025FE0C4B13A81B94A9
:100EC00013934FF4C0731D96189305232E943294F8
:100ED000CDE919534FF400331E9306F0E1FE34B010
:100EE00070BD00BF003802400070004008002100C3
:100EF0002DE9F04FC84A9BB000234FF0FF3101337A
:100F000042F8041B632BFAD1102200210DA8012501
:100F10002AF0B4F94FF0104A05F026F80024BF4B30
:100F20000DA8ADF834501094CDE90EA305F03EF8AD
:100F300017230DA88DF835508DF83C308DF84250B0
:100F400005F034F8042005F01FF8BFF34F8FBFF30E
:100F50006F8FB34BC3F85042BFF34F8FBFF36F8F08
:100F60005A6942F400325A61BFF34F8FBFF36F8F5B
:100F7000C3F88440BFF34F8FD3F8802043F6E0746A
:100F8000C2F3C900C2F34E32520102EA040601461E
:100F900046EA81750139C3F86052F9D2203A12F15C
:100FA000200FF2D1BFF34F8F5A6942F480325A6159
:100FB000BFF34F8FBFF36F8F04F036FF0024FFF7AE
:100FC00031FF142200210DA82AF058F9954B082171
:100FD00095481A6B01274FF0080B4FF4805A42F0E6
:100FE0001002924D924E4FF004091A634FF0100810
:100FF0001A6B02F010020292029A1A6B42F001027E
:101000001A631A6B02F001020392039A1A6B42F000
:1010100002021A631A6B02F002020492049A1A6B1B
:1010200042F040021A631A6B02F040020592059AE0
:101030001A6B42F400721A631A6B02F40072069281
:10104000069A1A6B42F008021A631A6B02F0080241
:101050000792079A1A6B42F480621A631A6B02F4C1
:1010600080620892089A1A6B42F020021A631A6B87
:1010700002F020020992099A1A6B42F480721A63F4
:101080001A6B02F480720A920A9A1A6B42F080027A
:101090001A631A6B02F080020B920B9A1A6B42F0E1
:1010A00004021A6301221B6B03F004030C930C9BD4
:1010B00005F0CCFA01224FF480515E4805F0C6FAE3
:1010C0000DA95948CDE90DB7CDE90F4405F036F922
:1010D0000DA95848CDE90DA7CDE90F4405F02EF92B
:1010E0004FF40063544A0DA952480F94CDE90D32D4
:1010F00005F024F905212246282004F0E1FE2820ED
:1011000004F010FF4D484E4A848002600762C0E937
:10111000054404F073FF4B4A2846C5E90A44C5E973
:101120000C44C5E90024C5E9024405F006F8394637
:101130002846454D05F0BAF8444A40230DA93046EB
:10114000B460F461B462C6E900244FF4C072C6E929
:1011500005324FF40063C6E9083A4FF0020A07234C
:10116000CDE90F93CDE90DA30323CDF84CA0CDE934
:10117000113AC6E9039807F094F829464FF6FF7232
:1011800030460194C5E90078C5E9027407F0A9F872
:10119000384604F071FE29464FF6FF723046C5E925
:1011A00000A8C5E9027407F09CF8032329464FF60E
:1011B000FF723046C5E90038C5E902B407F091F87E
:1011C0004FF40C734FF6FF72294601933046019B92
:1011D000AF60EB60C5E9009807F083F840F22B712F
:1011E00030461B4D07F094F84FF0204343F2D202F3
:1011F000284640F215261A60164B174A2C62C5E99C
:101200000023C5E90247C5E90444C5E9064405F0E1
:1012100071FB2146284621E0604203201B000003A9
:1012200000ED00E00038024000280240AC440320FA
:10123000F044032000200240000011103C42032033
:101240000030024000B002403C010020400100A0FC
:10125000F0410320FFEAC000005C004005F026FDDD
:10126000214628464D4D05F047FD342221460DEB21
:1012700002002AF003F84A4B2821352040F2352C91
:10128000AC862C6185F83640C5E900340923C5E9F0
:1012900005130B23C5E9070340F21B132846C5E9D4
:1012A000096340F21D13C5E90244C5E90BC305F00B
:1012B000CFFDFF214FF4806E4FF4F0724FF488732E
:1012C00028460D941893ADF864408DF86640354D6E
:1012D000CDE912140521CDE914E14FF04041CDE9EB
:1012E0000E24CDE9161222460DA9CDE9103A05F0DB
:1012F0007AFE2D482D4B0462C0E90298C0E9003700
:101300004FF018084FF4A063DFF8D090C0E90483D1
:10131000C0E9064405F0CEFF04F004FC04F048FBED
:101320005C2004F00DFE00F0D9FB214B2148036046
:1013300006F03EFF632328460F94AC60AC61C5E91C
:10134000009340F2E733CDE90D44EB6007F04AF932
:101350000DA928460D940F9407F074F900F0E9FBED
:10136000284606F0E7FF07F04DFA134A21461348D6
:1013700007F082FA124B134A21461860124807F010
:101380007BFA124B124A21461860124807F074FA91
:10139000114B186007F050FAFEE700BFEC43032042
:1013A000006801402445032070450320001000A080
:1013B000000806509C440320DCC40208190E0008F3
:1013C000EC410320B8C40208371B000894440320F2
:1013D00000C50208D1310008EC440320001400408D
:1013E000B0F5006F02D1024B01221A70704700BFA6
:1013F0004C01002038B502680446194B9A4201D1CD
:1014000004F028FD2268174B9A4222D1164B1C7813
:10141000FCB9164D1648294606F0E2FE29687823E5
:10142000B1FBF3F203FB12121249234608462A606D
:1014300051F8044B651C0DD140F823200E490B6870
:1014400040F823200133632093FBF0F200FB1233BA
:101450000B6038BDA242FCD00133632BE8D1EDE72D
:1014600000100040001400404D010020984403206B
:101470009C44032060420320500100200D4B82B0A9
:101480000F216FF001001A6C42F080521A641A6C3E
:1014900002F080520092009A5A6C42F480425A64E0
:1014A00000225B6C03F480430193019B02B004F0C3
:1014B00007BD00BF00380240026882B0084B9A4264
:1014C0000BD1D3F8302803F5006342F480521A633D
:1014D0001B6B03F480530193019B02B0704700BF64
:1014E000003002400E4B07B502689A4215D1A3F5B1
:1014F000F04305215A201A6B42F400021A630022BD
:101500001B6B03F400030193019B04F0D9FC5A20E8
:1015100003B05DF804EB04F005BD03B05DF804FB17
:1015200000B0024010B588B004461422002103A880
:1015300029F0A4FE2268134B9A4221D1124C4FF499
:10154000C07201211148236B43F080032363236B96
:1015500003F080030193019B1223CDE903230323AE
:10156000CDE90513042303A9079304F0E7FE236CD8
:1015700043F400032364236C03F400030293029BEF
:1015800008B010BD005C004000380240001C024062
:10159000026808B5094B9A420FD1094A80210948CF
:1015A000136C23F40003136404F0AEFF4FF4807156
:1015B0000448BDE8084004F0A7BF08BD005C004037
:1015C00000380240001C024070B58CB00446142262
:1015D000002107A829F052FE22683F4B9A4278D199
:1015E00003F55043002402250E265A6C07A93B48F8
:1015F00042F080625A645A6C02F080620192019A51
:101600001A6B42F010021A631A6B02F01002029277
:10161000029A1A6B42F400721A631A6B02F4007297
:101620000392039A1A6B42F480621A631A6B02F4F3
:1016300080620492049A1A6B42F040021A631A6B99
:1016400002F040020592059A1A6B42F480721A6306
:101650001B6B03F480730693069B1023CDE90735BB
:10166000CDE909440B9604F069FE4EF6FF7307A915
:101670001B480B96CDE90735CDE9094404F05EFE21
:10168000F72307A917480B96CDE90735CDE909449B
:1016900004F054FE4FF4805307A91348CDE90735F1
:1016A0000923CDE909440B9304F048FE4FF4464367
:1016B00007A90E480B96CDE90735CDE9094404F09A
:1016C0003DFE58202246052104F0FAFB582004F084
:1016D00029FC0CB070BD00BF006801400010024042
:1016E000002402400028024000180240002002406E
:1016F000142200212DE9F0418AB004460DEB0200CE
:1017000029F0BCFD22682C4B9A4252D12B4B022669
:10171000002503249A6B09274FF0040805A942F01D
:10172000020227489A639A6B02F002020192019A20
:101730001A6B42F010021A631A6B02F01002029246
:10174000029A1A6B42F002021A631A6B02F002024A
:101750000392039A1A6B42F008021A631B6B0997F3
:1017600003F008030493049BCDE90586CDE90754F3
:1017700004F0E4FD402305A91248CDE905360A230B
:10178000CDE90754099304F0D9FD05A90D4809973F
:10179000CDE90586CDE9075404F0D0FD4FF4605340
:1017A00005A909480997CDE90536CDE9075404F0A4
:1017B000C5FD0AB0BDE8F081001000A0003802406D
:1017C0000010024000040240000C0240026808B50C
:1017D0000B4B9A4213D10B4A04210B48936B23F015
:1017E0000203936304F090FE4421084804F08CFE49
:1017F0004FF460510648BDE8084004F085BE08BDBE
:10180000001000A000380240001002400004024016
:10181000000C02400E4B07B502689A4214D10D4BE2
:10182000052150205A6B42F040025A6300225B6B44
:1018300003F040030193019B04F042FB502003B0EE
:101840005DF804EB04F06EBB03B05DF804FB00BF71
:1018500000080650003802400E4B07B502689A4255
:1018600015D103F50933052137201A6C42F0200207
:101870001A6400221B6C03F020030193019B04F007
:101880001FFB372003B05DF804EB04F04BBB03B043
:101890005DF804FB001400402B4BF0B51C6887B0CA
:1018A000002C4ED10122022703260C251A6001A923
:1018B000264B27489A6B42F001029A639B6B039474
:1018C00003F001030093009B4FF68373CDE9046599
:1018D000CDE9013704F032FD48F2331301A91D4868
:1018E0000595CDE90137CDE9034604F027FD4CF21B
:1018F000037301A918480595CDE90137CDE90346E1
:1019000004F01CFD4FF63F0301A914480595CDE9ED
:101910000137CDE9034604F011FD282301A9104841
:101920000595CDE90137CDE9034604F007FD08230D
:1019300001A90C480595CDE90137CDE9034604F02E
:10194000FDFC07B0F0BD00BF54010020003802408C
:101950000010024000180240000C02400014024037
:10196000001C02400008024010B5014688B0002269
:10197000362004F0A5FA362004F0D4FA144B01A95D
:1019800003A81A6C134C42F010021A641B6C03F08B
:1019900010030293029B06F065F906F053F90E4B13
:1019A0004000236040F2E733E3600C4BB0FBF3F000
:1019B00001380023606020462361A36006F012FE18
:1019C00020B9204606F0B6FC08B010BD0120FBE7A8
:1019D00000380240BC4503200010004040420F0088
:1019E0007047FEE7FEE7FEE7FEE770474FF4006052
:1019F00004F032BE014806F0DFBC00BFBC45032046
:101A0000014806F0D9BC00BF24450320014806F078
:101A10001DBC00BF9C440320014805F087BA00BFED
:101A2000EC430320014804F0B6BB00BFAC440320E4
:101A30000120704708B529F0CDFA162303604FF056
:101A4000FF3008BD08B529F0C5FA16230360FEE78C
:101A500070B50E4614460025A54201DB204670BD38
:101A6000AFF3008070550135F6E770B50E461446A9
:101A70000025A54201DB204670BD705D0135AFF346
:101A80000080F6E74FF0FF3070474FF4005300201E
:101A90004B60704701207047002070470B4B024697
:101AA000196810B509B90A491960186809490A4C3A
:101AB0000244091B8A4206D929F08CFA0C230360E0
:101AC0004FF0FF3010BD1A60FCE700BF5801002046
:101AD000A846032000000520000A0000704700000F
:101AE000DFF834D0002103E00C4B5B584350043145
:101AF0000B480C4B42189A42F6D30B4A02E00023E3
:101B000042F8043B094B9A42F9D304F0A3F829F0B8
:101B10006FFBFFF7EDF970470000052094320308D2
:101B2000000000202001002020010020A846032002
:101B3000FEE700F0E7BF01F053B84068704741602E
:101B400070470000094A136843F080731360A2F5E0
:101B50004E42074B52F84C1C4C3A0B431360A2F513
:101B60007B62136843F0010313607047FCED00E0F3
:101B700055CEACC5511A01EB5301B1FBF3F07047E0
:101B8000014B1868704700BF041000E0704710B5A3
:101B900004460C2129F0C3F9204610BD036810B596
:101BA0001B69044631B19847A26863689B1A1844C0
:101BB000606010BD9847A060FBE70000024B7020FA
:101BC000024A1360DB681847100000205C01002007
:101BD000704710B50446042129F0A1F9204610BD34
:101BE00037B50A4D0C462B6813B9002003B030BD41
:101BF0001B6970200192984701990028F5D02B6845
:101C0000702022465B6998470120EFE75C010020C5
:101C10007FB501238DF817204FF47A72CDE9013298
:101C20000DF1170200920A460146054804F0CCFE69
:101C300010B1034804F0AFFE07B05DF804FB00BF2D
:101C4000F04103207FB500230A464FF47A718DF8E6
:101C500017300123CDE901310DF117010091014643
:101C6000054804F067FF10B1034804F094FE9DF8A6
:101C7000170007B05DF804FBF04103207047704780
:101C800070477047012380F8741080F875307047F2
:101C90000020704700207047836B0BB1084618473F
:101CA00070474FF6FF707047406803689B6918479C
:101CB0007047000038B5044601F0B2F8FFF7DEFFC8
:101CC0000B4B0C4A4FF04041636120462368D3F828
:101CD0008450094BA8470023084D84F84A30284611
:101CE000FFF730FF0123256184F86C3038BD00BF59
:101CF0006C01002000FC03C000F807C06001002058
:101D000008B531B90A4B4FF42B710A4A0A4829F039
:101D100035F9C0E90F12003A0849436418BF01229F
:101D2000003B0A7018BF0123054A137008BD00BFAD
:101D300064C502089CC50208EAC50208E640032003
:101D4000E740032008B5094B1B888B4203D8084B9A
:101D50001B88934205D9074B9E21074A074829F063
:101D60000DF9074B1980074B1A8008BDDC40032092
:101D7000DE4003202FC6020892C60208EAC5020808
:101D8000E2400320E440032001F012B801F016B84D
:101D900070B501F0BBF8104A0023C2F88430BFF3DD
:101DA0004F8FD2F8803043F6E074C3F3C900C3F319
:101DB0004E335B0103EA0406014646EA81750139A8
:101DC000C2F87452F9D2203B13F1200FF2D1BFF3C5
:101DD0004F8FBFF36F8F70BD00ED00E001F0A4B82E
:101DE00000F0C2BF01F070B901F078B900F0C6BFD1
:101DF00010B5044617F060FB23682046D3F8A430E2
:101E0000BDE81040184716F00DBD10B504467C2102
:101E100029F085F8204610BD90F877301BB1406856
:101E200003681B68184718467047000090F8341084
:101E30000D4B10B590F874401A788C4209D03AB91D
:101E40000A490B4A08881488108001220C801A70F5
:101E500010BD002AFCD0064A0449148808880C806A
:101E600010800022F3E700BFE0400320DE400320A3
:101E7000DC400320014608B5034B186801B101217D
:101E800017F034FB012008BDE840032008B50948DD
:101E9000094B0A4A0A49036029F03CF80948002323
:101EA000064A094943608360084B0360BDE8084067
:101EB00029F030B86C01002080C402080000002026
:101EC000FD0D0008600100208D1B00082CC50208D4
:101ED0000121002208B5084606F0DAFD0A4B186019
:101EE00028B90A4B29210A4A0A4829F047F8002252
:101EF0000421012006F092FE074B186018B9074B29
:101F00002D21034AF0E708BD78010020A8C7020888
:101F1000F1C7020820C802087401002069C802083D
:101F2000024B4FF0FF31186806F008BE7801002020
:101F3000014B186806F03CBE78010020024B0021DE
:101F4000186806F0FBBD00BF78010020FFF7F0BF66
:101F50000023034803491A46006806F0A5BE00BFE7
:101F6000740100200400002013B50023074C01A9D0
:101F70001A46206806F0DAFE4FF0FF33002201A96E
:101F8000206806F0D3FE02B010BD00BF740100202F
:101F900003685B6C18470120704703689B6A184709
:101FA0000D4B82B01A6B42F400021A631A6B02F4F2
:101FB00000020192019A1A6942F400021A611A6938
:101FC00022F400021A61054B054A1A614FF0806243
:101FD000044B9A6002B0704700380240AC440320C2
:101FE000F11F000800E100E040F2EF307047000010
:101FF000024B1B68586803685B691847E840032078
:1020000008B50B280BD8DFE800F01206100A0A0A00
:102010000A0808080808012008BD0520FCE7054B50
:102020006721054A054828F0A9FF0020F4E70220AF
:10203000F2E700BFABC80208C6C8020810C9020810
:1020400008B50A2809D8DFE800F010060E080808CD
:10205000080606060600012008BD054B8821054A32
:10206000054828F08BFF0020F6E70220F4E700BFC8
:10207000ABC8020857C9020810C902082DE9F84385
:1020800091F81D800C464046FFF7BAFFA77F054632
:102090003846FFF7B5FF06463846FFF7D1FFA18A5D
:1020A000628B4B4B521A9E461A649A61228B521ACB
:1020B0001A61E28A586342EA014221695A646268FD
:1020C000D963DA60D4F800C094F81C90BCF1800F9A
:1020D0004FEA096230D014D8BCF1200F45EA020063
:1020E00069D0BCF1400F66D0BCF1040F20D02A4368
:1020F000374BB84542F40032DA6148D140F2012250
:1021000014E0BCF5807F07D0BCF5007FEFD142F42E
:10211000003242F0090203E042F4003242F00A02C7
:10212000DA61E2681A625E6259612A4A1A604DE019
:1021300040F40030D861F6E7A0682A43041D42F459
:102140000032DC62DA6102785E62596142B1012AD2
:102150001FD0214B4FF48971204A214828F00EFFEF
:1021600042880124D969501E21F47F4222F01002D6
:1021700042EA0022DA61164BDA6942F02002DA61A3
:10218000DA699206FCD410229A60002CCDD1154A4F
:10219000CCE74288B9F1FF04D96902F1FF3018BFDA
:1021A000012421F47F4222F0100242EA002242F090
:1021B0001002DA61DFE740F40030064BCEF81C0075
:1021C000CEF82460CEF81410CEF80030BDE8F883C5
:1021D00000B0024001020200A2C90208BCC9020804
:1021E00010C902080102010038B50C46887FFFF7CC
:1021F00027FF174BA58AE18A628B41EA05415863A4
:10220000521B59642169D9631A642568082D0ED1BF
:102210009A611A6158620F4A207F42EA0062DA61CD
:10222000E2681A620C4A5961D9601A6038BD00220E
:10223000D8611A61E1680A0A4809C1F3C40102F4CD
:10224000784200F4FC6002430A439A63034AECE7D5
:1022500000B0024009000100010202000102030077
:10226000054B4FF080620360044BC3F88820BFF336
:102270004F8FBFF36F8F704704CA020800E100E080
:1022800010B50446FFF7ECFF4FF44261204628F0FA
:1022900046FE204610BD000070B504460A4B0C30C7
:1022A00000262546602260602672667245F8203B53
:1022B000294617F083FA04F54263EE602035AB42FD
:1022C000FBD1204670BD00BF04CA020840697047B8
:1022D00090F844007047036B23B9C06A003818BFF8
:1022E000012070470120704780687047043010B5A6
:1022F0000C460FC884E80F0010BD704708B5034AAC
:102300004FF4F371024B034828F038FE4CCA020820
:102310000A240308A7CA020810B50446482128F079
:10232000FEFD204610BD00002DE9F0431C46436B26
:10233000ADF51F7D05460E461746002B52D00022F4
:1023400003A8DFF8A890CDE901320EF0ADFE4FF4FE
:10235000F4725021249024A808F0B7FD3A46314683
:1023600024A809F051FD012124A808F0B7FE02239A
:1023700024A88DF8D83008F055FFBDF898622B9B43
:10238000BDF89C729E4228BF1E46419B9F4206EBB1
:10239000460828BF1F46A89BA3EB4606479B9F42C3
:1023A0001AD9012201A924A808F085FF6B6B03EB61
:1023B000080098420ED959789A78C90009EA022291
:1023C00001F4FC610A4313F8031B42EAD10224F82A
:1023D000022BEEE73444E1E724A808F0A1FE24A88C
:1023E00008F0C0FD0DF51F7DBDE8F08300F8FFFF8C
:1023F0000A4A02600022C0E90522C0E90722C0E9BA
:102400000922C0E90B22C0E90D12C0E90F2280F8B1
:102410004420C0E90322C0E90122704784CD0208AC
:1024200020B40D4611461A46036B3BB1036C806B1A
:10243000ED1A28445DF8045B29F0E1BBC06AF8E7B7
:10244000036B10B573B1036C826BC91A5318525CDD
:1024500098785C780004DB7840EA0420104340EA76
:10246000036010BDC36A5858FBE7036B43B1036CAC
:10247000C91A836B5A18585C527840EA0220704798
:10248000C36A585A7047000070B50446006B0D4689
:102490001646D8B1E36B934208D209230D4A552161
:1024A0000D4884F844300D4B28F068FD0368DB6864
:1024B0009847206B3246A16B03681B69984710B997
:1024C0000D2384F84430A06B256470BDE06A084495
:1024D000FBE700BF0DCB0208A7CA0208FACA020830
:1024E0002DE9F843436904462BB9224B9621224A31
:1024F000224828F043FD08228169FFF7C5FFA16942
:10250000204643F23007043146F26436FFF798FF65
:102510000546A169A36A0D4405F108029A4222D238
:10252000636909350822204625F001010133A161C4
:102530006361FFF7A9FFD4F8188020464146FFF7F2
:1025400094FF814608F104012046FFF779FFB94561
:102550000546DED108F102012046FFF786FFB042B2
:10256000D7D1012004E0012300206361236AA36125
:10257000BDE8F8834FCB020898CB0208A7CA02082F
:102580002DE9F04F0446ADF51F7D8A461746816957
:1025900008229846FFF778FFA6692046311DFFF70D
:1025A0004FFF06F10801024605462046FFF76CFF83
:1025B000636B064633B93C4B40F28B113B4A3C48B7
:1025C00028F0DCFC002203A8CDE901320EF06CFDFE
:1025D0004FF4F4725021249024A808F076FC2A4687
:1025E000314624A809F010FC012124A808F076FD4A
:1025F000022324A88DF8D83008F014FEBAF902504E
:10260000479BAB4205D2012201A924A808F053FE42
:10261000F6E7BAF900904FEA4808BAF804602B9B35
:1026200008FB05774E44BAF80250DFF888B036B29E
:102630009E4228BF1E46BAF8063009EB490A1D44DF
:10264000419B2DB29D4228BF1D46479BAB421FD2E6
:10265000012201A924A808F02EFE636B4A465344C8
:10266000B24203F1030311D213F8020C13F8011C58
:10267000C0000BEA012100F4FC60014313F8030CD5
:1026800041EAD00127F812100132E9E74744DCE7BC
:1026900024A808F045FD24A808F064FC01200DF5ED
:1026A0001F7DBDE8F08F00BFCBCB020821CC020814
:1026B000A7CA020800F8FFFF0129036838BF0121FB
:1026C000DB6A70B50D4604469847A84204D22368D9
:1026D0002046DB6A984705466B1EE66910222046B5
:1026E00006EB031606F10801FFF7CEFE06F1100116
:1026F0002046FFF7A5FE236A043B0344C4E90553C3
:1027000070BD00002DE9F34100210446482281619B
:1027100080F84410FFF7B8FEA7690423624A3946DF
:102720002046FFF77DFE40B10323604ADE2184F896
:1027300044305F4B5F4828F021FC07F10801042377
:102740005D4A2046A161FFF76BFE30B10423574A72
:10275000E62184F84430594BECE707F10C010423DF
:10276000574A2046A161FFF75BFE064630B10523BC
:102770004E4AED2184F84430524BDBE707F110015B
:102780002046FFF75DFE054618B94F4BF321474A37
:10279000D0E707F1140804234C4A20464146FFF7CE
:1027A0003FFE00284BD0062384F844300423484AD7
:1027B00007F118012046FFF733FE002841D0072318
:1027C00084F844304544434F0C2220462946FFF705
:1027D0005BFE05F1080604233A4620463146FFF722
:1027E0001FFE94F8443000284AD0002B4AD1A36A37
:1027F000291DAB424AD805F10C03291D2046A361CF
:102800000191FFF71DFE3044019960622046FFF7F9
:1028100017FE0644042220463146FFF735FE042306
:102820002D4A31462046FFF7FBFD002839D1012310
:10283000E6616361A369236202B0BDE8F08101260D
:10284000B4E7002EBED007F120012046FFF7F8FDC7
:102850004FF47A7307F13001B0FBF3F0606020466B
:10286000FFF7EEFD07F14001A0602046FFF7E8FD0D
:1028700007F14401E0602046FFF7E2FD2061A1E797
:10288000002BB8D00A2384F84430D5E72046FFF760
:10289000D7FD08300C22054420462946FFF7F4FDF9
:1028A00097E70B23EFE700BF7BCC020899CC020827
:1028B00080CC0208A7CA0208C6CC0208CBCC02080A
:1028C000E3CC0208E8CC0208FECC02080ACD0208DC
:1028D0000FCD020814CD020819CD0208C0E90A2163
:1028E00000220263FFF70EBF10B50023044608461E
:1028F000E3620B6821639B689847A0622046BDE8AD
:102900001040FFF7FFBE70B4BDF80C50BDF810606A
:102910002AB123B1CDE9035670BCFFF705BD70BCE9
:10292000704700002DE9FF479946436904460F466A
:1029300090462BB9284B6721284A294828F01EFBCE
:1029400008228169FFF7A0FDA669204606F1080A62
:10295000311DFFF775FDA36A00EB0A0205469A4296
:102960002ED231462046FFF780FD43F230039842D5
:102970001DD1B11C2046FFF778FD46F26433984222
:1029800015D1A5B12A4651462046C4F818A0FFF734
:102990007BFD0C9B01462A462046CDF80080CDE900
:1029A00001933B46FFF7AFFF636901336361A3699E
:1029B00001335819636A20F001009842A06108D1E0
:1029C0000120236A6061A36180F0010004B0BDE8CA
:1029D000F0870020F8E700BF4FCB02081ECD0208A9
:1029E000A7CA020870477047012070473820704717
:1029F000382303FB010008307047382303FB010034
:102A0000083070470120704748F60430704748F698
:102A1000043303FB01000830704748F6043303FB1E
:102A2000010008307047012070471020704700EB0C
:102A300001100830704700EB01100830704708465D
:102A400000F0A8BD034B10B50446036015F01EFC52
:102A5000204610BD2CCE020810B50446FFF7F2FF49
:102A60004021204628F05BFA204610BD034B10B5EC
:102A70000446036015F00AFC204610BDF8CD02089C
:102A800010B50446FFF7F2FF48F60C31204628F057
:102A900046FA204610BD0000034B10B50446036003
:102AA00015F0F4FB204610BDC4CD020810B5044655
:102AB000FFF7F2FF1821204628F031FA204610BD1A
:102AC000094B10B50446036000F50B403830FFF7A2
:102AD000B9FF04F12C00FFF7C9FF04F11400FFF760
:102AE000DBFF204610BD00BF60CE020810B50446D3
:102AF000FFF7E6FF48F66461204628F010FA20460A
:102B000010BD00002DE9F34100F0C0FB0024054694
:102B100000F0C0FB234601462246284600941CF0E4
:102B2000A7F9224B224A2046224F1A6001F0FAFFF1
:102B300021481CF0DFF83B68DB0730D41F4C204EE7
:102B4000204B04F1140006F5EA7504F12C0823600B
:102B50006060C4F80880E660256115F099FB1A4BA7
:102B60004046636115F094FB184B3046E36215F064
:102B70008FFB174B06F14000336002F04FF82246FE
:102B800006F14001284602F03FF8284600F002FD19
:102B90000123104A204610493B6028F0BBF90F483A
:102BA00002B0BDE8F041FFF785B800BF4441032003
:102BB000849C00207C01002008000020800100206F
:102BC000B88C002060CE0208C4CD0208F8CD0208FF
:102BD0002CCE020800000020C12A0008089C00201A
:102BE000014815F086BE00BF089C002010B50446C1
:102BF000782128F094F9204610BD10B50446042130
:102C000028F08DF9204610BD70B5314B314C324E55
:102C100023602046314A324928F07CF9314D304654
:102C2000FFF73AFB2D4A3049304628F073F9284621
:102C30001FF0E6F9294A2D49284628F06BF9274A62
:102C40002B492C4828F066F92B4800234FF480715B
:102C5000C4602A4C038580F82A30C3620386036669
:102C600080F86C3003671D4AC0E912132449C0E99B
:102C700019134FF080714167012180F878102149C4
:102C800008604FF4F07121801F4CC0E90165C0E974
:102C90000433C0E90633C0E90833C0E90E33C0E9A4
:102CA0001033C0E91433C0E9163321804FF4887122
:102CB000164C80F834302180154C218015490B705A
:102CC000154B16490360BDE8704028F023B900BFDA
:102CD00054C50208E48F0020E88F00200000002087
:102CE000D11B0008889C002061220008E52900080B
:102CF000E729000808000020089C0020DC40032091
:102D000001000001E8400320E2400320DE400320F0
:102D1000E4400320E0400320E0C60208B11C0008A4
:102D2000104A002370B5C2F88430BFF34F8FD2F839
:102D3000803043F6E074C3F3C900C3F34E335B0144
:102D400003EA0406014646EA81750139C2F8745265
:102D5000F9D2203B13F1200FF2D1BFF34F8FBFF315
:102D60006F8F70BD00ED00E0034B902283F85A2373
:102D700083F85823704700BF00E100E0094A0A4980
:102D8000D3680A48C3F30A03013B9BB20B80116965
:102D9000C1F30A01013901801364536B43F001034D
:102DA0005363704700680140029D0020009D002091
:102DB000014B986A704700BF84680140024B0122B2
:102DC000996243F8602C704784680140034B5B694B
:102DD000DB0301D5FFF7A4BF704700BF00ED00E0A3
:102DE00070470131002300EB41110B7190F8243042
:102DF0000BB9C36A4363704700EB8100406830B48D
:102E000015460268946829461A46234630BC18477E
:102E100000EB8100114640680368DB68184700003A
:102E200038B5044615F053FD23681D6E19F00CF8F3
:102E300001462046A8472368084A4FF04041D3F88E
:102E4000845020460023A847054B064A5A60064A8C
:102E5000DA625A63054A1A6338BD00BF00FC03C03A
:102E6000ACA0002064A00020F0A00020806C010035
:102E700008B531B1044B4FF49D71044A044828F061
:102E80007DF890F8250008BD6CCE020880CE0208BF
:102E900009D0020810B531B1064B4FF49A71064AB9
:102EA000064828F06BF8406811460368BDE81040FA
:102EB0001B6B18476CCE02084CD0020809D00208E0
:102EC00008B529B1034B6521034A044828F056F898
:102ED000C06808BD6CCE0208F9D1020809D002080A
:102EE00008B529B1054B6E21054A064828F046F879
:102EF000C0E90411C0E9063208BD00BF6CCE02086B
:102F0000ADD3020809D0020815F0C8BC08B515F009
:102F10008FFC044B5B69DB0303D5BDE80840FFF77A
:102F2000FFBE08BD00ED00E015F0EDBD90F83830B3
:102F300010B504463BB14FF0FF31006C05F04EFD7B
:102F40004FF48073238710BD10B50446442127F049
:102F5000E6FF204610BD000010B5044629B1164B0F
:102F60008821164A164828F009F8042A15D8DFE8FF
:102F700002F0031115171D00406803681B6998478C
:102F800058B1012384F8253084F827300023C4E9A0
:102F9000043302E0002380F8253010BD0362F5E71A
:102FA000002380F8253001230362F6E7003B18BFB9
:102FB000012380F82830F0E76CCE020868D50208BB
:102FC00009D0020810B50446104629B1114BAF21B3
:102FD000114A124827F0D2FF94F8253013B16369E3
:102FE0000133636194F826300BB9012010BDA3684A
:102FF000036303685B699847002394F8270084F80B
:1030000026300028F1D194F82830002BEED184F836
:103010002500EBE76CCE02083BD7020809D0020876
:1030200010B5104C15F046FC94F8253053B1E16909
:10303000D4E905235A4323694B439A4224BF012311
:1030400084F826300123E06B84F8383005F0B0FDB9
:1030500094F839302BB1206C05F0F0FC002384F893
:10306000393010BDACA0002090F8243070B533B1D9
:10307000104B4FF4BD71104A104827F07FFF01221A
:10308000456BD0E90B4680F8242005F5B632344470
:103090008032A24203D90A4B42210A4AECE742633A
:1030A000D8228560184681F83430CA860A870B63B7
:1030B00070BD00BFDBD802080BD9020809D0020896
:1030C00091DA0208CCDA0208034B4FF080629A6072
:1030D0004FF080729A60704700E100E0084B4FF0BB
:1030E0008062C3F88820BFF34F8FBFF36F8F4FF01C
:1030F0008072C3F88820BFF34F8FBFF36F8F704784
:1031000000E100E0134B144A1B6C11888B4210B590
:10311000124C13D1124B198803F092FF226892F8D7
:103120006630013382F86630FEF712FF206816F031
:10313000C3F90020BDE81040FEF7A1BD03F080FFF9
:103140000020FEF79DFD20680368BDE810401B6A63
:10315000184700BF00680140029D0020E84003209E
:10316000009D0020F7B504464FF4D8764FF0FF31AC
:10317000E06B05F0E3FC4FF0FF31206C05F02EFC16
:1031800094F82630E3B1216A656829B12B68284696
:103190005B6A9847002323622B68284600965F6984
:1031A000D823A1681A46B847236984F82700013359
:1031B000236148B12B6828469B6A98470138E06034
:1031C000206C05F03BFCD1E70123E360F8E7000049
:1031D000014808B5FFF7C6FFACA0002070B5194C38
:1031E0000025194E19492046FFF702F932461849C1
:1031F000204627F08FFE174C174B01202A46294600
:10320000236084F82450E58484F8280065632087CF
:10321000C4E90355C4E90555C4E90755C4E90B558C
:10322000C4E90F55C4E9015505F032FCE0632846B6
:1032300005F092FB3246206420460849BDE8704004
:1032400027F068BE64A0002000000020049D00203C
:10325000FB220008ACA0002078DC0208E12D000869
:1032600008B503290FD8DFE801F00A02060A01F0C9
:10327000A5FC406808BD01F0A1FC8068FAE701F0F8
:103280009DFC0068F6E70020F4E700000048704766
:10329000C0DC02080220704713B5002451B1036856
:1032A00001AA01948DF803409C680DF10303A04727
:1032B00002B010BD0846FBE740897047808970471F
:1032C0008088704783798088184480B27047C079BD
:1032D00000F07F007047C079C0097047704710B593
:1032E0000446082127F01BFE204610BD704700F55C
:1032F00096730868496803C370470020704781804F
:103300007047C180704701817047418170477047A5
:10331000704770477047704710B4C4880368121B29
:1033200084881B6D091B12B25DF8044B09B2184763
:103330004FF6FF7383814FF0FF3303621368C3615D
:1033400010607047704770474160704770470123B5
:103350000372704790F825201AB190F8242002B12A
:103360001860704770477047704770470146406863
:10337000036810311B6E184701464068036810311E
:10338000DB6D184770477047002210B5B1F908404F
:10339000B1F90A10028042808480C18010BD10B44F
:1033A00041680346C2689B68541001EB6200D20773
:1033B00048BF0A595DF8044B48BFD35818474368C3
:1033C0002BB183682BB9C06800F001007047184624
:1033D00070470120704710B504460C2127F09FFD6F
:1033E000204610BD10B50446102127F098FD204658
:1033F00010BD10B504464FF4AC7127F090FD204687
:1034000010BD10B50446382127F089FD204610BDB7
:1034100010B50446282127F082FD204610BD10B5C6
:1034200018F012FD0368BDE810401B6B184710B57B
:103430000446D0F83C0158B10368DB68984738B1BE
:10344000D4F83C0103689B6898470023C4F83C31DA
:1034500010BD0000044B1B6893F876200AB1D86CAD
:1034600000B99868704700BFE8400320F0B50446F3
:10347000807A89B00130637AC0B29842A0724DD888
:10348000B4F90C2000211AF0D3F810F0010283B235
:103490004AD04FF6FF710028D8BF0A461344E38193
:1034A000E0890025638B214E0344214F3188B7F911
:1034B00000C00A1A5B1A606806A912B2ADF81E3085
:1034C000036862831B69ADF81850ADF81A20ADF897
:1034D0001CC09847A37A012B24D1164B1B780BB341
:1034E00054F8140F04AB616803C3134B18680368E6
:1034F0001B6B98473B880390ADF81C3033880695CA
:10350000ADF81E30FFF7A6FFFF2203680399009273
:1035100006AA0195DC6804ABA04703E001232372EF
:103520000023A37209B0F0BDE081B9E7DE400320BB
:10353000DC400320E6400320E8400320F8B50446C1
:1035400017460E4618F0A2FC0E4B00251C602946BB
:103550000D4B23600D4BC4E950350D4B1868C4E981
:1035600052550368C4E94E559B68C4E954769847A0
:10357000284601F0D7FAFFF76DFF20F08CFB2046BC
:10358000F8BD00BF3441032068E2020850E202089F
:10359000E8400320064BC0F84401C0F8483100233E
:1035A000C0F84C3100F5A073C0F83C31704700BF43
:1035B00035370008064BC0F84401C0F848310023F5
:1035C000C0F84C3100F5A073C0F83C31704700BF23
:1035D000ED380008064BC0F84401C0F8483100231C
:1035E000C0F84C3100F5A073C0F83C31704700BF03
:1035F000493A00082DE9F84F0746906899468846F1
:1036000003681446DDF828A01B6A984740F60B2390
:10361000984205D8414BA321414A424827F0AEFCCD
:10362000606803681B6A98470F2803D83E4BA421A3
:103630003B4AF2E7E06803681B6A98470B2803D807
:103640003A4BA521364AE8E718F0FEFB18F002FCD9
:10365000D9F8000010B10368DB689847D9F800007A
:1036600010B103681B689847386810B103685B693C
:103670009847D8F8000010B103685B68984738682D
:1036800010B103681B689847D8F8000010B10368B0
:103690009B689847E06800214FF0000B03685B6A65
:1036A0009847234B0546C0F804B00360594680F89C
:1036B00008B0A06803685B6A9847064601F056FBAD
:1036C0006068594603685B6A98470446314601F0D2
:1036D000B9FAC9F80050C8F800403E60E4B1231DB3
:1036E000CAF8903130463368C4F808A0DB68F46348
:1036F0009847236820461B6898472946304619F0AA
:1037000091FF2B6828461B6998472B6828465B6900
:1037100098472046BDE8F88F2346E1E7F8DC020829
:1037200086DD02088ADE0208D1DE020874DF0208A4
:10373000ACE20208D0F8543107B500F59C71009353
:10374000044BD0F850210448FFF754FF03B05DF854
:1037500004FB00BF284103202441032070B500234F
:1037600000F11005104A04464360037202602822EB
:10377000417219468372C381284627F07FFD4FF4BA
:1037800080732846A386094B2361094BB3F9006077
:10379000084BA681B3F90010FFF7B5FD2846314666
:1037A000FFF7B3FD204670BD34E30208D0E2020803
:1037B000DE400320DC4003202DE9F04707469068F7
:1037C0009946884603681446DDF820A01B6A98478E
:1037D00040F60B23984205D83F4BA3213F4A40486F
:1037E00027F0CCFB606803681B6A98470F2803D852
:1037F0003C4BA421394AF2E7E06803681B6A98470A
:10380000372803D8384BA521344AE8E718F01CFBC9
:1038100018F020FBD9F8000010B10368DB68984766
:10382000D9F8000010B103681B689847386810B1D8
:1038300003685B699847D8F8000010B103685B68BB
:103840009847386810B103681B689847D8F800009B
:1038500010B103689B689847E068002103685B6AC1
:10386000984714210546FFF779FFA06800210368F7
:103870005B6A9847064601F079FA606800210368A0
:103880005B6A98470446314601F0DCF9C9F80050FC
:10389000C8F800403E60E4B1231DCAF890313046BC
:1038A0003368C4F808A0DB68F463984723682046AF
:1038B0001B6898472946304619F0B4FE2B68284605
:1038C0001B6998472B6828465B6998472046BDE8E6
:1038D000F0872346E1E700BFF8DC020817E00208A2
:1038E0008ADE0208D1DE020874DF0208D0F8543103
:1038F00007B500F59C710093044BD0F850210448A3
:10390000FFF75AFF03B05DF804FB00BF2841032016
:10391000244103202DE9F0470746906899468846E0
:1039200003681446DDF820A01B6A984748F6033365
:10393000984205D83F4BA3213F4A404827F01EFB41
:10394000606803681B6A98470F2803D83C4BA42182
:10395000394AF2E7E06803681B6A9847372803D8BA
:10396000384BA521344AE8E718F06EFA18F072FADD
:10397000D9F8000010B10368DB689847D9F8000057
:1039800010B103681B689847386810B103685B6919
:103990009847D8F8000010B103685B68984738680A
:1039A00010B103681B689847D8F8000010B103688D
:1039B0009B689847E068002103685B6A9847142178
:1039C0000546FFF7CBFEA068002103685B6A9847B5
:1039D000064601F0ADFD6068002103685B6A984708
:1039E0000446314601F0DEF9C9F80050C8F800403D
:1039F0003E60E4B1231DCAF8903130463368C4F804
:103A000008A0DB68F4639847236820461B68984742
:103A10002946304619F006FE2B6828461B69984750
:103A20002B6828465B6998472046BDE8F087234607
:103A3000E1E700BFF8DC02082EE102088ADE020896
:103A4000D1DE020874DF0208D0F8543107B500F562
:103A50009C710093044BD0F850210448FFF75AFFA3
:103A600003B05DF804FB00BF28410320244103207C
:103A7000006A7047406A704770478B888069DB0A2C
:103A80000A6850F823001044704710B5C2B1137B88
:103A9000B3B1547BD27A240204F4E0641443C269C3
:103AA00098B202EB840213888B4202D192F9020091
:103AB00010BD05D80138043280B20028F3D1F7E7F1
:103AC0000020F5E710B50446282127F028FA204603
:103AD00010BD000030B589B00446BDF850500695C1
:103AE000BDF84C5005959DF8405004959DF83C500C
:103AF00003959DF8385002959DF8345001959DF836
:103B00003050009519F0CCF9064B20462360119BEC
:103B1000A361129BE361159B2362169B636209B04C
:103B200030BD00BF58E30208806A70477047704795
:103B300070477047704770477047704770477047CD
:103B400070477047704770477047704770477047BD
:103B5000704790F82C302BB1C26EC26523B1436F11
:103B600003667047826EF8E7036FF9E770477047A6
:103B700030B444680346C2689B68551004EB620089
:103B8000D20748BF625930BC48BFD3581847436872
:103B90002BB183682BB9C06800F00100704718464C
:103BA00070470120704790F82D3080F85A307047E8
:103BB00010B50446102127F0B2F9204610BD10B50B
:103BC0000446782127F0ABF9204610BD10B5044615
:103BD00040F6082127F0A3F9204610BD10B5044691
:103BE000006B50B10368DB68984730B1206B214609
:103BF0000368BDE810409B68184710BD00F19802AB
:103C00000346914202D10368DB6A184700F58872C7
:103C1000914202D103681B6BF7E700F5C472914231
:103C200002D103685B6BF0E700F50072914202D1AC
:103C300003689B6BE9E700F51E72914202D10368AD
:103C4000DB6BE2E700F53C72914202D103681B6C2A
:103C5000DBE700F55A72914202D103685B6CD4E74E
:103C600000F57872914202D103689B6CCDE700F5B4
:103C70008B62914202D10368DB6CC6E700F59A6261
:103C8000914203D10268126D1846104700F5A962EF
:103C9000914202D10268526DF6E700F5B862914296
:103CA00002D10268926DEFE770470B7970B5044658
:103CB0000D4690F82C609BB98EB9B3FA83F3204679
:103CC0005B0984F82C302368D3F888309847236840
:103CD00020465B69984716B12B79012B03D070BD44
:103CE000002EFCD0E9E723682046D3F88430BDE8F5
:103CF00070401847074A02600022C0E90122C0E96B
:103D00000322C0E90522C0E907224FF480728284B1
:103D1000704700BFB81A0308036870B50446DB6A31
:103D2000154698472368204629461B6BBDE870401E
:103D3000184770B504461D46BDF91060FFF7ECFF4B
:103D40002368294620465B6B984723683146204606
:103D50009B6BBDE87040184710B504462622002131
:103D600027F08CFA2046FFF7C5FF044B204623605E
:103D7000FF2384F826300023A36210BD2C1603080D
:103D800010B504462622002127F078FA2046FFF7D6
:103D9000B1FF074B4FF47F0220462360054BA3621F
:103DA0004FF6FF73A3850023C4E90C32238710BDAF
:103DB00084150308F0DC020870B50446FFF79AFF8B
:103DC0004FF47F4300252646A3850123A56284F88E
:103DD00024300D4B256346F8343B3046FFF7BCFFDB
:103DE0000A4B2A462946304663632566A4F8645088
:103DF000C4E91A55C4E91C55FFF78EFF2046314629
:103E000014F0BEFA204670BDBCE40208381703085F
:103E100010B40367019B5DF8044B43670368C0E976
:103E20001A12D3F8883018472DE9F04F04460025C0
:103E30004FF488760327A34604F16C0ADFF8B493A5
:103E400004F6F8182DED108B91B019F03FFAE14B04
:103E5000E5634BF8403B5846FFF77EFF4FF6FF7394
:103E60000EA95046ADF8383015F0F2FC04F1980375
:103E7000184608EE103AFFF79FFF04F588731846BE
:103E800008EE903AFFF798FF04F5C473184609EE60
:103E9000103AFFF791FF04F50073184609EE903AC7
:103EA000FFF78AFF04F51E7318460AEE103AFFF773
:103EB00083FF04F53C7318460AEE903AFFF77CFF47
:103EC00004F55A7318460BEE103AFFF775FF04F528
:103ED000787318460BEE903AFFF76EFF04F58B638C
:103EE00018460CEE103AFFF767FF04F59A63184680
:103EF0000CEE903AFFF760FF04F5A96318460DEE4B
:103F0000103AFFF759FF04F5B86318460DEE903AE2
:103F1000FFF752FF04F5C76318460C93FFF71CFF29
:103F200004F2646318460EEE103AFFF729FFAA4B1D
:103F3000C4F8A056C4F8643604F2A46318460EEE22
:103F4000903AFFF71DFF04F5DC6318460FEE103AB8
:103F5000FFF716FF04F21C7318460FEE903AFFF7B6
:103F60000FFF04F5EB6318460293FFF709FF04F215
:103F7000947318460393FFF703FF04F5FA6318469A
:103F80000493FFF7FDFE04F60C0318460593FFF7B4
:103F9000F7FE04F6480318460693FFF7F1FE04F611
:103FA000840318460793FFF7EBFE04F50C631846ED
:103FB0000893FFF7E5FE04F6FC0318460993FFF7A4
:103FC000DFFE04F6381318460A93FFF7D9FE04F60D
:103FD000741318460D93FFF7BFFE804BC4F8A05929
:103FE000C4F8743904F6A813A4F8A45918460B931E
:103FF000FFF7C6FE7A4B2A462946C4F8F8395846D8
:10400000784B0096C4F8003A4FF4F073C4F8FC49BA
:10401000C4F8045AFFF78DFE4FF07F430EA95046B7
:10402000A366ADF8385016F0D5F94FF4F0732A4670
:104030002946504600963226FFF77BFE2946504619
:1040400015F0CCFB33462A46294604F1CC000096F5
:10405000FFF76FFE644B654A18EE100A6449A4F836
:10406000FC70CDF80090FFF7D3FE33463C226E2162
:1040700018EE100A0096FFF75CFE33462A462946E2
:1040800004F5A2700096C4F8C880FFF752FE564BA4
:10409000564A18EE900A5649A4F87471CDF800906B
:1040A000FFF7B6FE33463C22B42118EE900A009684
:1040B000FFF73FFE33462A46294604F5DE70009698
:1040C000C4F84081FFF735FE474B484A19EE100A05
:1040D0004749A4F8EC71CDF80090FFF799FE3346FC
:1040E0003C22FA2119EE100A0096FFF722FE334611
:1040F0002A46294604F50D700096C4F8B881FFF7EA
:1041000018FE394B394A19EE900A3949A4F86472FD
:10411000CDF80090FFF77CFE33463C224FF4A071AF
:1041200019EE900A0096FFF704FE33462A46294608
:1041300004F52B700096C4F83082FFF7FAFD2A4B85
:104140002A4A1AEE100A2A49A4F8DC72CDF8009027
:10415000FFF75EFE334678226E211AEE100A0096B3
:10416000FFF7E7FD33462A46294604F549700096D5
:10417000C4F8A882FFF7DDFD1B4B1C4A1AEE900A1B
:104180001B49A4F85473CDF80090FFF741FE334665
:104190007822B4211AEE900A0096FFF7CAFD334642
:1041A0002A46294604F567700096C4F82083FFF775
:1041B000C0FD0D4B0D4A1BEE100A0D49A4F8CC733F
:1041C000CDF80090FFF724FE33467822FA211BEE4B
:1041D000100A11E06CE5020890160308381703086E
:1041E00054E50208FD3B0008663300FFCC9900FF50
:1041F000996600FF996633FF0096FFF79AFD3346F4
:104200002A46294604F214400096C4F89883FFF722
:1042100090FD5C4B5C4A1BEE900A5C49A4F8447428
:10422000CDF80090FFF7F4FD334678224FF4A071EB
:104230001BEE900A0096FFF77CFD33462A4629467E
:1042400004F28C400096C4F81084FFF772FD4D4BC9
:104250004D4A1CEE100A4D49A4F8BC74CDF80090EC
:10426000FFF7D6FD3346B4226E211CEE100A0096ED
:10427000FFF75FFD33462A46294604F204500096B4
:10428000C4F88884FFF755FD3E4B3F4A1CEE900A68
:104290003E49A4F83475CDF80090FFF7B9FDB4227B
:1042A00033461CEE900A11460096FFF742FD334656
:1042B0002A46294604F27C500096C4F80085FFF790
:1042C00038FD304B304A1DEE100A3049A4F8AC7569
:1042D000CDF80090FFF79CFD3346B422FA211DEE85
:1042E000100A0096FFF725FD33462A46294604F2B8
:1042F000F4500096C4F87885FFF71BFD214B224A45
:104300001DEE900A2149A4F82476CDF80090FFF71D
:104310007FFD3346B4224FF4A0711DEE900A009643
:10432000FFF707FD1E231022D2210C9804F6E41695
:1043300000933C23C4F8F085FFF7FBFC4FF0FF33FC
:104340001422D921C4F8603616231EEE100A0093F9
:104350002E23FFF7EEFC4FF07F43A4F89856C4F8E5
:1043600094360B4B1B682BB90A4BAE210A4A0B48FB
:1043700026F004FE0A4B1B88012B15D8094BAF21F0
:10438000054AF4E7663300FFCC9900FF996600FF09
:1043900038410320A8E30208EAE3020818E402080F
:1043A0003C4103205FE40208D14B01216FF4403807
:1043B0004FF00209186800F0F1FBCE4A03460A21CB
:1043C00030461AF089FCC4F8A066CB4E0EA91EEE4A
:1043D000100AADF83C500E9615F026FE49221EEE4E
:1043E000900A8121FFF798FC0EA91EEE900AA4F80E
:1043F000D856C4F8D4860E96ADF83C9015F014FE4D
:1044000049221FEE100AC721FFF786FC0EA91FEEF6
:10441000100AA4F81457C4F810870E96ADF83C7033
:1044200015F002FE49221FEE900A40F20D11FFF72F
:1044300073FC04230EA91FEE900AA4F85057C4F889
:104440004C87ADF83C300E9615F0EEFD49220298EF
:1044500040F25311FFF760FC05230EA90298A4F85F
:104460008C57C4F88887ADF83C300E9615F0DCFD0B
:10447000852203988121FFF74FFC06230EA903989C
:10448000A4F8C857C4F8C487ADF83C300E9615F0B0
:10449000CBFD85220498C721FFF73EFC07230EA918
:1044A0000498A4F80458C4F80088ADF83C300E967F
:1044B00015F0BAFD8522059840F20D11FFF72CFC8E
:1044C00008230EA90598A4F84058C4F83C88ADF814
:1044D0003C300E9615F0A8FD8522069840F2531147
:1044E000FFF71AFC09230EA90698A4F87C58C4F813
:1044F0007888ADF83C300E9615F096FDC1220798ED
:104500008121FFF709FC0A230EA90798A4F8B858DF
:10451000C4F8B488ADF83C300E9615F085FDC12284
:104520000898C721FFF7F8FB0B230EA90898A4F8F9
:10453000F458C4F8F088ADF83C300E9615F074FDD0
:10454000C122099840F20D11FFF7E6FB0C230EA9DA
:104550000998A4F83059C4F82C89ADF83C300E966F
:1045600015F062FDC1220A9840F25311FFF7D4FB07
:104570000D230EA90A98A4F86C59C4F86889ADF8FF
:104580003C300E9615F050FD21230D98EB228E2124
:104590000093CC23FFF7CDFB4FF0FF33EF220B98B6
:1045A000C4F89C394FF07F43AC21A4F8A499C4F817
:1045B000A039FFF7B1FB4FF07F43A4F8DC59251D6C
:1045C000C4F8D83912230EA90B98ADF83C300E96DA
:1045D00015F02AFD5946284613F0D2FE51462846CA
:1045E00013F0CEFE18EE101A284613F0C9FE18EE8E
:1045F000901A284613F0C4FE19EE101A284613F03C
:10460000BFFE19EE901A284613F0BAFE1AEE101AE1
:10461000284613F0B5FE1AEE901A284613F0B0FEA5
:104620001BEE101A284613F0ABFE1BEE901A28461C
:1046300013F0A6FE1CEE101A284613F0A1FE1CEE85
:10464000901A284613F09CFE1DEE101A284613F00F
:1046500097FE1DEE901A284613F092FE0C992846FC
:1046600013F08EFE1EEE101A284613F089FE1EEE81
:10467000901A284613F084FE1FEE101A284613F0F5
:104680007FFE1FEE901A284613F07AFE0299284604
:1046900013F076FE0399284613F072FE049928461B
:1046A00013F06EFE0599284613F06AFE0699284617
:1046B00013F066FE0799284613F062FE0899284613
:1046C00013F05EFE0999284613F05AFE0A9928460F
:1046D00013F056FE0D99284613F052FE28460B990A
:1046E00013F04EFE204611B0BDEC108BBDE8F08FEC
:1046F00044410320C0FE0208F0DC02087047704706
:1047000010B504464FF4B67126F009FC204610BDE2
:1047100008B529B917F098FBBDE80840FEF74ABF75
:1047200008BD00002DE9F04F044687B018F0CEFD1B
:104730000025674BA04604F16C0A04F19807E56375
:1047400004F1D80948F8403B4046FFF705FBDFF885
:10475000A4B1504604F58276FFF7FEFA3846FFF71B
:104760000FFBC4F898B04846C4F8D450FFF7F4FAE9
:104770003046FFF705FB4FF488732A46294640462A
:10478000C4F804B100934FF4F073C4F8405104F539
:10479000A27BFFF7CEFA4FF07F4306220F21A366DC
:1047A0001D23504600933823FFF7C3FA4FF0FF3321
:1047B00008221F21C4F894303846FFF7ADFA4FF0B5
:1047C0007F43A4F8CC50C4F8C830424B1B682BB9C7
:1047D000414BAE21414A424826F0D0FB414B1B8859
:1047E0000F2B03D8404BAF213C4AF4E73F4B0F213E
:1047F000186800F0D3F93E4A03460A2158461AF0D9
:104800006BFA3846C4F8D4B015F0F1FBDFF8E8B025
:104810000E2304A93846CDF810B0ADF8143015F0C9
:1048200003FC1D223C234FF4CC7148460092062223
:10483000FFF77FFA4FF0FF324FF4CC713046C4F8E7
:1048400000210822FFF768FA4FF07F42A4F83851A0
:1048500004F5AC75C4F834211E4A1368002BB7D098
:10486000204A1388112BBDD9204B1121186800F064
:1048700095F91F4A03460A2128461AF02DFA3046B8
:10488000C4F8405115F0B3FB10233046CDF810B0FA
:104890000DEB0301ADF8143015F0C6FB201D4146A9
:1048A000039013F06DFD5146039813F069FD3946EE
:1048B000039813F065FD4946039813F061FD0398D2
:1048C000314613F05DFD204607B0BDE8F08F00BF14
:1048D000D0E5020838410320A8E30208EAE3020811
:1048E00018E402083C4103205FE40208444103202D
:1048F000C0FE020890160308F0DC020830B5124C26
:104900008DB0236813F001031BD13F2201250F490D
:1049100007920F4A089306920E4A039300930E489B
:10492000CDE904320422CDE90933CDE901250E2376
:104930000B22FFF7CFF8094A09490748256026F0FE
:10494000E9FA05480DB030BD700D02204C5A0490B4
:10495000D42F030860320308740D022000000020E9
:10496000793A000830B5124D8DB02B6813F0010371
:104970001BD10893012441220E490F480294CDE92E
:1049800009333F2307930D4B06930D4B05930423E7
:10499000CDE90344CDE900331423FFF79BF8094A1E
:1049A000094905482C6026F0B5FA03480DB030BD22
:1049B0009C0D0220E85A0490A00D0220D82F030875
:1049C0006432030800000020793A000830B5134C27
:1049D0008DB0236813F001031DD108930125352202
:1049E0000F491048CDE909333F2307930E4B069337
:1049F0000E4B05930223CDE903330423CDE90135A2
:104A0000082300932823FFF765F8094A0949054858
:104A1000256026F07FFA03480DB030BDC80D022096
:104A2000785E0490CC0D0220C83003086832030879
:104A300000000020793A00080020704700207047ED
:104A40000EB403B503AB002153F8042B019318F007
:104A50005BF802B05DF804EB03B070470CB407B527
:104A600004AB53F8042B019318F04EF803B05DF833
:104A700004EB02B070470000436C10B5044673B3FA
:104A8000038F2BB9184BC021184A194826F076FA23
:104A9000C38E00EB43035B8C0BB319F065FB238FD4
:104AA000012B03D8134BC521134AEEE7E28E40F6E3
:104AB0003F10531C9BB2092B194688BFA3F10A0172
:104AC00004EB4101498C814209D10A2B04EB4202DB
:104AD00028BF0023508C04EB4303588451842046A4
:104AE000BDE8104019F024BAFCE5020805E602080A
:104AF000B0E60208FAE6020808E7020819F0D0B9A1
:104B000010B586B002AC84E806001A460AAB21460E
:104B100005930193099B0093089B16F0EFFC06B0E8
:104B200010BD000038B518BB124B13481B68134961
:104B3000B3B11A689C681A441C4402605A681A444B
:104B40000A600F4B00221A8000F038F8054600F08A
:104B500033F80C4B1C600C4B1D600C4B188007E0AD
:104B60000B4B03600B4B0B600B4B1C68002CE8D10C
:104B700038BD00BFF40D0220F80D0220FC0D02200C
:104B8000000E022038410320404103203C41032015
:104B9000AC610490606104902C620490044B1B682B
:104BA00053F82100034B1B6803EB4000704700BF24
:104BB000FC0D0220F80D02201320704700487047BA
:104BC000040E022010B5054CFFF7CCFE2060FFF765
:104BD000FDFE6060FFF792FEA06010BD040E022093
:104BE000704710B504464FF4AC7126F098F9204692
:104BF00010BD10B50446D0F8540100F013F820465B
:104C0000BDE8104016F0F4BF10B50446FEF796FC60
:104C1000014B2046236010BDE4E702080022C0F8E3
:104C2000902170477047704704387047704710B53F
:104C30000446102126F073F9204610BDA0F10400AF
:104C4000F5E700000022C1608260044A10B502F15D
:104C5000080420320460426010BD00BF20E8020852
:104C60007047704703680021DB6D18470368012116
:104C7000DB6D184703680221DB6D184703680321C9
:104C8000DB6D184703680421DB6D184703680521B5
:104C9000DB6D184703680621DB6D184703680721A1
:104CA000DB6D184703680821DB6D1847036809218D
:104CB000DB6D184703680A21DB6D184703680B2179
:104CC000DB6D1847C36B9B681B68052B10B504464A
:104CD0000BDDC0F8083A0A21064A00F6E41019F084
:104CE000FBFF04F2646018F031F82046BDE8104084
:104CF000FEF72EBF1D01030810B5044640F60C2137
:104D000026F00DF9204610BD0A2910B504460CD036
:104D10000B29D0F8083A0CD00A2202FB03136422B4
:104D200093FBF2F102FB113300E00023C4F8083AD0
:104D30000BE0042B09DD5A1F5E2A9EBFC26B9268EE
:104D4000136017F081F8FEF745FCD4F8083A04F632
:104D5000E410054A0A2119F0BFFF04F26460BDE8BF
:104D6000104017F0F3BF00BF1D01030810B5044643
:104D7000FFF75AF8034B204623600523C4F8083A8E
:104D800010BD00BF50E802087047043870477047F4
:104D900010B50446102126F0C2F8204610BDA0F13F
:104DA0000400F5E70022C1608260044A10B502F1F8
:104DB000080420320460426010BD00BFB0E8020861
:104DC00070B51E4B044648F27C4546F27C66036093
:104DD00063596019403D1B689847B542F8D104F506
:104DE000CD4304F5A4453C331C35AB4208D0A3F1B8
:104DF0002C0653F82C3C30461B6898473346F4E7A2
:104E000004F566553C35AB4208D0A3F1340653F89F
:104E1000343C30461B6898473346F4E704F5BE76C9
:104E2000B34208D0A3F1780553F8783C28461B68B4
:104E300098472B46F4E7204670BD00BF10E90208F2
:104E400000F50A4200F50A4009490023E032DC304F
:104E500030B514689C4206DD51F8045B046844F8E0
:104E600023500133F5E7034B00221A7030BD00BF19
:104E7000604203204D01002048F6E023F0B5C558FC
:104E800000F50A4000230F26DC30C1EB01179D42DC
:104E90000BDD046854F8234094FBF6FC8C4502D1EA
:104EA000E41B944203D00133F1E70020F0BD012060
:104EB000FCE7C1EB01110A4402F508523E3200EB57
:104EC000820250680028D4BF00200120704770473C
:104ED00030B444680346C2689B68551004EB620016
:104EE000D20748BF625930BC48BFD35818474368FF
:104EF0002BB183682BB9C06800F0010070471846D9
:104F000070470120704710B50446102126F007F8BD
:104F1000204610BD10B50446FFF752FF48F6043195
:104F2000204625F0FCFF204610BD00002DE9F74F7C
:104F300000F50A4804468A4600F5BE7B002708F1C2
:104F4000F908D9460026CA453FD148F6F823E35C64
:104F5000002B3AD198F80050002D36D148F6F023B6
:104F6000394620463246E75048F6F423E650236897
:104F7000DB6A98472B4648F6820148F60A00E21899
:104F8000555C0DB9125C02B30133782BF7D10123C4
:104F900004F50845134A0521284688F8003019F021
:104FA0009BFE48F2F84304F50441201DE55004F54A
:104FB0000445FC310190BC3513F0E2F90198294613
:104FC00013F0DEF9284617F0C1FE013609F1780921
:104FD0000F2EB8D101370BF5E16B082FB1D103B01B
:104FE000BDE8F08FD8E8020838B548F6DC2304465F
:104FF000C05826F02DF904F5084204F508410023B5
:105000000A32823115460020013005F8013B85F84F
:1050100077300F28F8D10F328A42F3D148F6E022D8
:10502000A35048F6E422A35048F6E822A35448F6D9
:10503000EC22A35048F6F022A35048F6F422A350E5
:1050400048F6F822A35248F6FC22A35004F50B447C
:10505000236038BD48F6F823C35C13B50446002B23
:105060002DD148F6F923C05C48BB48F6EC22A35882
:105070003B2B22DD48F6FC21A05004F50B4263587F
:105080003B2BCABF13680133605004F5AC70CCBF32
:10509000013363504FF00A01C8BF136048F6FC2388
:1050A000E35800931368074A19F016FE04F582705E
:1050B00002B0BDE8104017F049BE0133A35002B062
:1050C00010BD00BFDCE80208C36B0A219B681B68A7
:1050D0005A1F5F2A48F6EC222DE9F04F28BF4FF007
:1050E000FF33002500F50B4748F6E02648F6FC287C
:1050F0000446835187B0855040F8085000F5A270EF
:105100009D4A3D6019F0E8FD54F808309B4A0A2199
:10511000009304F5AC703B6819F0DEFD04F19800D3
:1051200017F014FE04F5827017F010FE48F6F8230D
:10513000E554A559002D05DA204607B0BDE8F04F2B
:10514000FFF7DDBAAD00284626F07AF848F6DC23F2
:105150000544E0504FF0FF33A84202D040F8043B32
:10516000FAE704F50A4804F50A472368002608F11F
:10517000E008DC379B6B20469847D8F80050B542D2
:1051800040DD3B680F254FF4E16A4FF0780953F892
:105190002610201D91FBF5F3C3EB03120AFB03F36A
:1051A0000290891A09FB013101F5BE71214413F007
:1051B000B5F83B68029853F8261091FBF5F2C2EB64
:1051C0000213C91A4FF4257353432C2202FB0131F9
:1051D00001F5A4411C31214413F0D2F83B68029838
:1051E00053F82610013691FBF5F5C5EB0513C91AE6
:1051F00009FB01F10AFB051505F5BE71214413F009
:10520000BFF8BAE7002204F50A404FF00F0C48F649
:105210000A069646DC304FF00108A118B2FBFCF3F9
:10522000C3EB031901F806E04FEA031A0021A2EBD1
:1052300009098D420BDD076857F82170974240F04D
:105240009880AAEB030323444B4403F80680013201
:10525000782AE2D148F60A090027DFF824A104EBF6
:10526000090305930F26B7FBF6F63301C6EB0615C7
:105270000393E319A7EB050813F80930002B73D14A
:10528000454448F6FC0C059A4FF0FF3004EB850EC0
:1052900042444EF80C300EEB0C0B731E0492049932
:1052A000C3EB03128A184FF0FF31029250EA010259
:1052B00012D05A1C10D0082B0ED008EB0102B2F10C
:1052C000FF3F09D00F2A07D0029A525C22B1DBF8C7
:1052D00000200132CBF8002001310229E6D1013053
:1052E00001330228DBD15EF80C30002B3CD04FF0AC
:1052F000060B03210BFB08F24FF05A0B0BFB062B9E
:1053000052460BF5054B0BF1300BA344584619F0F0
:10531000E3FC46F2BC63201D03EB85150290254497
:10532000C5F83CB04FF0780B0BFB08F24FF4E16B83
:105330000BFB062B0BF5BE7BA344594612F0EEFF88
:105340002946029813F01CF80298594613F018F8F1
:10535000039B28469E1B46F2BC63B04404EB8818AE
:1053600058F803305B6998470137782F7FF47AAF9C
:10537000E2E601315DE700BF1D010308DCE8020839
:10538000E6E8020807292DE9F74304460F461546CB
:1053900074D80E2A72D803681B6B984700284ED029
:1053A00048F6F023E3589F4268D148F6F423E358C7
:1053B0009D4263D148F6F82304F5084501220521F2
:1053C0002846261DE25404F50A48584A04F50A47BF
:1053D00019F082FC48F2F84304F504413046E550E8
:1053E00004F50445FC3108F1E008BC3512F0C8FFB3
:1053F0003046DC37294612F0C3FF2846002517F057
:10540000A5FCD8F80030AB4238DD3B68304653F895
:1054100025100F23013591FBF3F3C3EB0312891A17
:105420004FF4E1625343782202FB013101F5BE7172
:10543000214412F073FF304617F088FCE1E723683F
:105440002A46394620465B6B3E019847C8B1782111
:105450004FF4E163F61B201D6943019001F5BE7115
:1054600003FB07112144344412F058FF019817F050
:105470006DFC254448F682030122EA5403B0BDE8DE
:10548000F083F61B48F6820826442E4416F80830AE
:10549000002BF3D178214FF4E163201D07F1FF3990
:1054A0006943019001F5BE7103FB0711214412F01D
:1054B00035FF019817F04AFC01232A46494606F8B1
:1054C0000830204623687E1C05F1FF38DB6A9847C8
:1054D00023682A4631462046DB6A984723684246BD
:1054E00039462046DB6A98470135236839462A4603
:1054F0002046DB6A98472368424649462046DB6AD5
:10550000984723682A4631462046DB6A9847236835
:105510002A4649462046DB6A984723684246314678
:10552000DB6A204603B0BDE8F0431847EAE802080A
:105530002DE9F04F2DED048B8DB00446FFF7F2F806
:10554000CE4B04F5814BDFF858A3236004F68408A2
:10555000CB4B0BF1440B5746C4E95B34C94BC4F841
:1055600074310023C4F87831A8F5E1652846002697
:10557000FEF7C0FBFF22A946C34B85F82D20012270
:10558000AE6285F8242085F82C602E6349F8343B00
:105590004846FEF7E1FBC5F834A02E662846A5F87C
:1055A000646049462E876E87C5E91A66C5E91C66A0
:1055B000783512F0E5FE4545D8D105F5E168D845C6
:1055C000D2D104F5735804F5AA4908F1080809F185
:1055D0002809A8F5437528463435FEF7BDFB45F884
:1055E000347C45F8086C25F8046C4545F3D105F585
:1055F0004378C845EDD104F5A94504F5D2484FF6E6
:10560000FF79303508F15008A5F5257630462C365F
:105610000AA9ADF8289014F01BF9AE42F6D106F5B0
:1056200025754545F0D104F5D44804F50849DFF85F
:1056300074A2002508F17C0809F17C09A8F57076B0
:1056400030464036FEF79CFB46F840AC46F8045C1A
:105650004645F5D106F57078C845EFD148F2BC460D
:1056600004EB060B5846FEF78BFB44F806A048F205
:10567000FC46CBF83C50A319184609EE103AFEF749
:105680006BFB48F22853A751E55019EE103A1D86DE
:1056900048F6EC23E55048F6F023E55048F6F423AD
:1056A000E55048F6F823E55248F6FC23E55004F5AA
:1056B0000B431D6004F566533C33049300230393AE
:1056C0000893342309930023CDE90533069B04F5A1
:1056D000BE75059AC3EBC303DDF810909B00283319
:1056E0001BB208EE903A04F5CD433C33A3EB020A1B
:1056F00004F5A443089A1C3303EB0208039B1D44E2
:105700001E230793BDF91C301C26484618EE902A2C
:1057100008EE103A0096334648F22C5718EE101A4D
:10572000FEF707FB594B4FF002024946C9F82830F3
:10573000A3F21453A9F8302009F1340949F8083CC0
:10574000231D184609EE903A12F01AFE4FF002029D
:105750003223D721E25319EE100A7A220096FEF77F
:10576000E8FA48F224534A4A4FF0FF31584600966F
:10577000E25048F228534FF00202E1503223E25344
:10578000D7217A220027FEF7D4FA48F2EC434FF0F3
:10579000FF31404A5846ADF82C70E1500AA9ABF8E9
:1057A00034700A9214F040FC5046334618EE902AAA
:1057B00018EE101A0096FEF7BCFA4FF0FF31354A8A
:1057C0005046CAF8301005990A9201EB0A0309996C
:1057D000ADF82C700AF1400A5F520AA914F024FCBB
:1057E000D8F8003001224046DB6D0AA9ADF8282028
:1057F00098474046334618EE902A18EE101A009645
:10580000FEF797FA394605F1340033463A460096DA
:10581000FEF78FFA4FF002021F4B2846A5F86420CE
:1058200008F12C081D4AC5E91A23A3F5CC43663BB1
:105830002B6703F1331303F54C536B672B68D3F8D5
:10584000883098472846334618EE902A18EE101AEA
:105850000096FEF76EFA04F5B673294619EE900A23
:105860002B63783512F08CFD079B33449BB2B3F564
:10587000E17F07937FF446AF16E000BF10E902080E
:10588000F8E802082D4F0008BCE402087A3800FF4F
:105890007A7A7AFFF0DC0208CC9900FF996600FF63
:1058A0003817030890160308069B01330693049BE0
:1058B00003F543730493059BA3F570730593099B4C
:1058C00003F570730993089B03F525730893039BF5
:1058D00003F5E1630393069B082B7FF4F7AE2046A4
:1058E0000DB0BDEC048BBDE8F08F00BF00B54FF4E8
:1058F000807295B04FF0807103460C9205220F9193
:1059000001210692002201910B92139200920B4802
:10591000CDE90312CDE90D22CDE91122102206A90D
:1059200002924FF4800205926A4601F06DFD003844
:1059300018BF012015B05DF804FB00BF0846032026
:1059400000B54FF4807395B041F2883217480C933C
:10595000062306A906930023CDE90D330F930B937D
:105960001393CDE9113301F00CFDE0B902230122BC
:105970004FF4800104900D48CDE900331023CDE9A8
:10598000023205236A46CDE905134FF0807306A95C
:105990000F9341F2883301F037FD003818BF012022
:1059A00015B05DF804FB0120FAE700BF08460320AC
:1059B00000B54FF4807391B04FF040720E480893D9
:1059C000EB2302A902934FF4406309934FF4005371
:1059D00005930023CDE90A320A220F9307926A4603
:1059E000CDE90D33CDE9003301F05EFD003818BF7D
:1059F000012011B05DF804FB08460320454B01214E
:105A000045489A6B42F00202F0B59A638DB09A6BEA
:105A100009240427002602F00202404D0092009A59
:105A20009A6942F002029A619A6922F002029A612E
:105A30001A6B42F002021A631A6B02F00202019220
:105A4000019A1A6B42F002021A631A6B02F0020208
:105A50000292029A1A6B42F008021A631A6B02F061
:105A600008020392039A1A6B42F008021A631A6B37
:105A700002F008020492049A1A6B42F010021A63B0
:105A80001A6B02F010020592059A1A6B42F0080296
:105A90001A6340221B6B03F008030693069B022344
:105AA000CDE907230323CDE909130A2307A90B93A3
:105AB00000F044FC07A91848079709960B9400F0DA
:105AC0003DFC4FF4006307A928460B94079300F0B0
:105AD00035FC4FF4805307A928460B94079300F038
